{
  "contractName": "StarNotary",
  "abi": [
    {
      "inputs": [],
      "stateMutability": "nonpayable",
      "type": "constructor"
    },
    {
      "anonymous": false,
      "inputs": [
        {
          "indexed": true,
          "internalType": "address",
          "name": "owner",
          "type": "address"
        },
        {
          "indexed": true,
          "internalType": "address",
          "name": "approved",
          "type": "address"
        },
        {
          "indexed": true,
          "internalType": "uint256",
          "name": "tokenId",
          "type": "uint256"
        }
      ],
      "name": "Approval",
      "type": "event"
    },
    {
      "anonymous": false,
      "inputs": [
        {
          "indexed": true,
          "internalType": "address",
          "name": "owner",
          "type": "address"
        },
        {
          "indexed": true,
          "internalType": "address",
          "name": "operator",
          "type": "address"
        },
        {
          "indexed": false,
          "internalType": "bool",
          "name": "approved",
          "type": "bool"
        }
      ],
      "name": "ApprovalForAll",
      "type": "event"
    },
    {
      "anonymous": false,
      "inputs": [
        {
          "indexed": true,
          "internalType": "address",
          "name": "from",
          "type": "address"
        },
        {
          "indexed": true,
          "internalType": "address",
          "name": "to",
          "type": "address"
        },
        {
          "indexed": true,
          "internalType": "uint256",
          "name": "tokenId",
          "type": "uint256"
        }
      ],
      "name": "Transfer",
      "type": "event"
    },
    {
      "inputs": [
        {
          "internalType": "address",
          "name": "to",
          "type": "address"
        },
        {
          "internalType": "uint256",
          "name": "tokenId",
          "type": "uint256"
        }
      ],
      "name": "approve",
      "outputs": [],
      "stateMutability": "nonpayable",
      "type": "function"
    },
    {
      "inputs": [
        {
          "internalType": "address",
          "name": "owner",
          "type": "address"
        }
      ],
      "name": "balanceOf",
      "outputs": [
        {
          "internalType": "uint256",
          "name": "",
          "type": "uint256"
        }
      ],
      "stateMutability": "view",
      "type": "function",
      "constant": true
    },
    {
      "inputs": [
        {
          "internalType": "uint256",
          "name": "tokenId",
          "type": "uint256"
        }
      ],
      "name": "getApproved",
      "outputs": [
        {
          "internalType": "address",
          "name": "",
          "type": "address"
        }
      ],
      "stateMutability": "view",
      "type": "function",
      "constant": true
    },
    {
      "inputs": [
        {
          "internalType": "address",
          "name": "owner",
          "type": "address"
        },
        {
          "internalType": "address",
          "name": "operator",
          "type": "address"
        }
      ],
      "name": "isApprovedForAll",
      "outputs": [
        {
          "internalType": "bool",
          "name": "",
          "type": "bool"
        }
      ],
      "stateMutability": "view",
      "type": "function",
      "constant": true
    },
    {
      "inputs": [],
      "name": "name",
      "outputs": [
        {
          "internalType": "string",
          "name": "",
          "type": "string"
        }
      ],
      "stateMutability": "view",
      "type": "function",
      "constant": true
    },
    {
      "inputs": [
        {
          "internalType": "uint256",
          "name": "tokenId",
          "type": "uint256"
        }
      ],
      "name": "ownerOf",
      "outputs": [
        {
          "internalType": "address",
          "name": "",
          "type": "address"
        }
      ],
      "stateMutability": "view",
      "type": "function",
      "constant": true
    },
    {
      "inputs": [
        {
          "internalType": "address",
          "name": "from",
          "type": "address"
        },
        {
          "internalType": "address",
          "name": "to",
          "type": "address"
        },
        {
          "internalType": "uint256",
          "name": "tokenId",
          "type": "uint256"
        }
      ],
      "name": "safeTransferFrom",
      "outputs": [],
      "stateMutability": "nonpayable",
      "type": "function"
    },
    {
      "inputs": [
        {
          "internalType": "address",
          "name": "from",
          "type": "address"
        },
        {
          "internalType": "address",
          "name": "to",
          "type": "address"
        },
        {
          "internalType": "uint256",
          "name": "tokenId",
          "type": "uint256"
        },
        {
          "internalType": "bytes",
          "name": "_data",
          "type": "bytes"
        }
      ],
      "name": "safeTransferFrom",
      "outputs": [],
      "stateMutability": "nonpayable",
      "type": "function"
    },
    {
      "inputs": [
        {
          "internalType": "address",
          "name": "operator",
          "type": "address"
        },
        {
          "internalType": "bool",
          "name": "approved",
          "type": "bool"
        }
      ],
      "name": "setApprovalForAll",
      "outputs": [],
      "stateMutability": "nonpayable",
      "type": "function"
    },
    {
      "inputs": [
        {
          "internalType": "uint256",
          "name": "",
          "type": "uint256"
        }
      ],
      "name": "starsForSale",
      "outputs": [
        {
          "internalType": "uint256",
          "name": "",
          "type": "uint256"
        }
      ],
      "stateMutability": "view",
      "type": "function",
      "constant": true
    },
    {
      "inputs": [
        {
          "internalType": "bytes4",
          "name": "interfaceId",
          "type": "bytes4"
        }
      ],
      "name": "supportsInterface",
      "outputs": [
        {
          "internalType": "bool",
          "name": "",
          "type": "bool"
        }
      ],
      "stateMutability": "view",
      "type": "function",
      "constant": true
    },
    {
      "inputs": [],
      "name": "symbol",
      "outputs": [
        {
          "internalType": "string",
          "name": "",
          "type": "string"
        }
      ],
      "stateMutability": "view",
      "type": "function",
      "constant": true
    },
    {
      "inputs": [
        {
          "internalType": "uint256",
          "name": "",
          "type": "uint256"
        }
      ],
      "name": "tokenIdToStarInfo",
      "outputs": [
        {
          "internalType": "string",
          "name": "name",
          "type": "string"
        }
      ],
      "stateMutability": "view",
      "type": "function",
      "constant": true
    },
    {
      "inputs": [
        {
          "internalType": "uint256",
          "name": "tokenId",
          "type": "uint256"
        }
      ],
      "name": "tokenURI",
      "outputs": [
        {
          "internalType": "string",
          "name": "",
          "type": "string"
        }
      ],
      "stateMutability": "view",
      "type": "function",
      "constant": true
    },
    {
      "inputs": [
        {
          "internalType": "address",
          "name": "from",
          "type": "address"
        },
        {
          "internalType": "address",
          "name": "to",
          "type": "address"
        },
        {
          "internalType": "uint256",
          "name": "tokenId",
          "type": "uint256"
        }
      ],
      "name": "transferFrom",
      "outputs": [],
      "stateMutability": "nonpayable",
      "type": "function"
    },
    {
      "inputs": [
        {
          "internalType": "string",
          "name": "name",
          "type": "string"
        },
        {
          "internalType": "uint256",
          "name": "tokenId",
          "type": "uint256"
        }
      ],
      "name": "createStar",
      "outputs": [],
      "stateMutability": "payable",
      "type": "function",
      "payable": true
    },
    {
      "inputs": [
        {
          "internalType": "uint256",
          "name": "_tokenId",
          "type": "uint256"
        },
        {
          "internalType": "uint256",
          "name": "_price",
          "type": "uint256"
        }
      ],
      "name": "putStarForSale",
      "outputs": [],
      "stateMutability": "nonpayable",
      "type": "function"
    },
    {
      "inputs": [
        {
          "internalType": "uint256",
          "name": "_tokenId",
          "type": "uint256"
        }
      ],
      "name": "buyStar",
      "outputs": [],
      "stateMutability": "payable",
      "type": "function",
      "payable": true
    },
    {
      "inputs": [],
      "name": "buyStar",
      "outputs": [
        {
          "internalType": "uint8",
          "name": "",
          "type": "uint8"
        }
      ],
      "stateMutability": "pure",
      "type": "function",
      "constant": true
    },
    {
      "inputs": [
        {
          "internalType": "uint256",
          "name": "_tokenID",
          "type": "uint256"
        }
      ],
      "name": "lookUptokenIdToStarInfo",
      "outputs": [
        {
          "internalType": "string",
          "name": "",
          "type": "string"
        }
      ],
      "stateMutability": "view",
      "type": "function",
      "constant": true
    },
    {
      "inputs": [
        {
          "internalType": "uint256",
          "name": "callerToken",
          "type": "uint256"
        },
        {
          "internalType": "uint256",
          "name": "friendToken",
          "type": "uint256"
        }
      ],
      "name": "exchangeStars",
      "outputs": [],
      "stateMutability": "nonpayable",
      "type": "function"
    },
    {
      "inputs": [
        {
          "internalType": "uint8",
          "name": "starToken",
          "type": "uint8"
        },
        {
          "internalType": "address",
          "name": "to",
          "type": "address"
        }
      ],
      "name": "transferStar",
      "outputs": [],
      "stateMutability": "nonpayable",
      "type": "function"
    }
  ],
  "bytecode": "0x60806040523480156200001157600080fd5b506040518060400160405280600a81526020017f537461724e6f74617279000000000000000000000000000000000000000000008152506040518060400160405280600381526020017f5354580000000000000000000000000000000000000000000000000000000000815250816000908051906020019062000096929190620000b8565b508060019080519060200190620000af929190620000b8565b505050620001cd565b828054620000c69062000168565b90600052602060002090601f016020900481019282620000ea576000855562000136565b82601f106200010557805160ff191683800117855562000136565b8280016001018555821562000136579182015b828111156200013557825182559160200191906001019062000118565b5b50905062000145919062000149565b5090565b5b80821115620001645760008160009055506001016200014a565b5090565b600060028204905060018216806200018157607f821691505b602082108114156200019857620001976200019e565b5b50919050565b7f4e487b7100000000000000000000000000000000000000000000000000000000600052602260045260246000fd5b6130c880620001dd6000396000f3fe6080604052600436106101355760003560e01c806361ce1868116100ab5780639697c0a11161006f5780639697c0a11461043b578063a22cb46514610457578063b88d4fde14610480578063c87b56dd146104a9578063d7830ccb146104e6578063e985e9c51461052357610135565b806361ce18681461034457806361d5f5291461036d5780636352211e1461039657806370a08231146103d357806395d89b411461041057610135565b806315e0afa5116100fd57806315e0afa5146102455780631967fd981461026e57806323b872dd146102ab5780632f1c34ef146102d457806342842e0e146102f0578063434614671461031957610135565b806301ffc9a71461013a5780630564b1301461017757806306fdde03146101b4578063081812fc146101df578063095ea7b31461021c575b600080fd5b34801561014657600080fd5b50610161600480360381019061015c9190612108565b610560565b60405161016e91906129c1565b60405180910390f35b34801561018357600080fd5b5061019e600480360381019061019991906121ae565b610642565b6040516101ab9190612c1e565b60405180910390f35b3480156101c057600080fd5b506101c961065a565b6040516101d691906129dc565b60405180910390f35b3480156101eb57600080fd5b50610206600480360381019061020191906121ae565b6106ec565b604051610213919061295a565b60405180910390f35b34801561022857600080fd5b50610243600480360381019061023e91906120cc565b610771565b005b34801561025157600080fd5b5061026c600480360381019061026791906121d7565b610889565b005b34801561027a57600080fd5b50610295600480360381019061029091906121ae565b6108bf565b6040516102a291906129dc565b60405180910390f35b3480156102b757600080fd5b506102d260048036038101906102cd9190611fc6565b610965565b005b6102ee60048036038101906102e991906121ae565b6109c5565b005b3480156102fc57600080fd5b5061031760048036038101906103129190611fc6565b610b40565b005b34801561032557600080fd5b5061032e610b60565b60405161033b9190612c39565b60405180910390f35b34801561035057600080fd5b5061036b60048036038101906103669190612213565b610b69565b005b34801561037957600080fd5b50610394600480360381019061038f91906121d7565b610bc4565b005b3480156103a257600080fd5b506103bd60048036038101906103b891906121ae565b610c56565b6040516103ca919061295a565b60405180910390f35b3480156103df57600080fd5b506103fa60048036038101906103f59190611f61565b610d08565b6040516104079190612c1e565b60405180910390f35b34801561041c57600080fd5b50610425610dc0565b60405161043291906129dc565b60405180910390f35b6104556004803603810190610450919061215a565b610e52565b005b34801561046357600080fd5b5061047e60048036038101906104799190612090565b610ea8565b005b34801561048c57600080fd5b506104a760048036038101906104a29190612015565b611029565b005b3480156104b557600080fd5b506104d060048036038101906104cb91906121ae565b61108b565b6040516104dd91906129dc565b60405180910390f35b3480156104f257600080fd5b5061050d600480360381019061050891906121ae565b611132565b60405161051a91906129dc565b60405180910390f35b34801561052f57600080fd5b5061054a60048036038101906105459190611f8a565b6111f5565b60405161055791906129c1565b60405180910390f35b60007f80ac58cd000000000000000000000000000000000000000000000000000000007bffffffffffffffffffffffffffffffffffffffffffffffffffffffff1916827bffffffffffffffffffffffffffffffffffffffffffffffffffffffff1916148061062b57507f5b5e139f000000000000000000000000000000000000000000000000000000007bffffffffffffffffffffffffffffffffffffffffffffffffffffffff1916827bffffffffffffffffffffffffffffffffffffffffffffffffffffffff1916145b8061063b575061063a82611289565b5b9050919050565b60076020528060005260406000206000915090505481565b60606000805461066990612ea6565b80601f016020809104026020016040519081016040528092919081815260200182805461069590612ea6565b80156106e25780601f106106b7576101008083540402835291602001916106e2565b820191906000526020600020905b8154815290600101906020018083116106c557829003601f168201915b5050505050905090565b60006106f7826112f3565b610736576040517f08c379a000000000000000000000000000000000000000000000000000000000815260040161072d90612b3e565b60405180910390fd5b6004600083815260200190815260200160002060009054906101000a900473ffffffffffffffffffffffffffffffffffffffff169050919050565b600061077c82610c56565b90508073ffffffffffffffffffffffffffffffffffffffff168373ffffffffffffffffffffffffffffffffffffffff1614156107ed576040517f08c379a00000000000000000000000000000000000000000000000000000000081526004016107e490612bbe565b60405180910390fd5b8073ffffffffffffffffffffffffffffffffffffffff1661080c61135f565b73ffffffffffffffffffffffffffffffffffffffff16148061083b575061083a8161083561135f565b6111f5565b5b61087a576040517f08c379a000000000000000000000000000000000000000000000000000000000815260040161087190612abe565b60405180910390fd5b6108848383611367565b505050565b600061089483610c56565b905060006108a183610c56565b90506108ae828286610b40565b6108b9818385610b40565b50505050565b60066020528060005260406000206000915090508060000180546108e290612ea6565b80601f016020809104026020016040519081016040528092919081815260200182805461090e90612ea6565b801561095b5780601f106109305761010080835404028352916020019161095b565b820191906000526020600020905b81548152906001019060200180831161093e57829003601f168201915b5050505050905081565b61097661097061135f565b82611420565b6109b5576040517f08c379a00000000000000000000000000000000000000000000000000000000081526004016109ac90612bfe565b60405180910390fd5b6109c08383836114fe565b505050565b6000600760008381526020019081526020016000205411610a1b576040517f08c379a0000000000000000000000000000000000000000000000000000000008152600401610a1290612bde565b60405180910390fd5b6000600760008381526020019081526020016000205490506000610a3e83610c56565b9050813411610a82576040517f08c379a0000000000000000000000000000000000000000000000000000000008152600401610a7990612b9e565b60405180910390fd5b610a8d813385610b40565b60008190508073ffffffffffffffffffffffffffffffffffffffff166108fc849081150290604051600060405180830381858888f19350505050158015610ad8573d6000803e3d6000fd5b5082341115610b3a5760003390508073ffffffffffffffffffffffffffffffffffffffff166108fc8534610b0c9190612daf565b9081150290604051600060405180830381858888f19350505050158015610b37573d6000803e3d6000fd5b50505b50505050565b610b5b83838360405180602001604052806000815250611029565b505050565b60006001905090565b6000610b778360ff16610c56565b90503373ffffffffffffffffffffffffffffffffffffffff168173ffffffffffffffffffffffffffffffffffffffff1614610bb157600080fd5b610bbf81838560ff16610b40565b505050565b3373ffffffffffffffffffffffffffffffffffffffff16610be483610c56565b73ffffffffffffffffffffffffffffffffffffffff1614610c3a576040517f08c379a0000000000000000000000000000000000000000000000000000000008152600401610c31906129fe565b60405180910390fd5b8060076000848152602001908152602001600020819055505050565b6000806002600084815260200190815260200160002060009054906101000a900473ffffffffffffffffffffffffffffffffffffffff169050600073ffffffffffffffffffffffffffffffffffffffff168173ffffffffffffffffffffffffffffffffffffffff161415610cff576040517f08c379a0000000000000000000000000000000000000000000000000000000008152600401610cf690612afe565b60405180910390fd5b80915050919050565b60008073ffffffffffffffffffffffffffffffffffffffff168273ffffffffffffffffffffffffffffffffffffffff161415610d79576040517f08c379a0000000000000000000000000000000000000000000000000000000008152600401610d7090612ade565b60405180910390fd5b600360008373ffffffffffffffffffffffffffffffffffffffff1673ffffffffffffffffffffffffffffffffffffffff168152602001908152602001600020549050919050565b606060018054610dcf90612ea6565b80601f0160208091040260200160405190810160405280929190818152602001828054610dfb90612ea6565b8015610e485780601f10610e1d57610100808354040283529160200191610e48565b820191906000526020600020905b815481529060010190602001808311610e2b57829003601f168201915b5050505050905090565b6000604051806020016040528084815250905080600660008481526020019081526020016000206000820151816000019080519060200190610e95929190611d70565b50905050610ea3338361175a565b505050565b610eb061135f565b73ffffffffffffffffffffffffffffffffffffffff168273ffffffffffffffffffffffffffffffffffffffff161415610f1e576040517f08c379a0000000000000000000000000000000000000000000000000000000008152600401610f1590612a7e565b60405180910390fd5b8060056000610f2b61135f565b73ffffffffffffffffffffffffffffffffffffffff1673ffffffffffffffffffffffffffffffffffffffff16815260200190815260200160002060008473ffffffffffffffffffffffffffffffffffffffff1673ffffffffffffffffffffffffffffffffffffffff16815260200190815260200160002060006101000a81548160ff0219169083151502179055508173ffffffffffffffffffffffffffffffffffffffff16610fd861135f565b73ffffffffffffffffffffffffffffffffffffffff167f17307eab39ab6107e8899845ad3d59bd9653f200f220920489ca2b5937696c318360405161101d91906129c1565b60405180910390a35050565b61103a61103461135f565b83611420565b611079576040517f08c379a000000000000000000000000000000000000000000000000000000000815260040161107090612bfe565b60405180910390fd5b61108584848484611778565b50505050565b6060611096826112f3565b6110d5576040517f08c379a00000000000000000000000000000000000000000000000000000000081526004016110cc90612b7e565b60405180910390fd5b60006110df6117d4565b905060008151116110ff576040518060200160405280600081525061112a565b80611109846117eb565b60405160200161111a929190612936565b6040516020818303038152906040525b915050919050565b606060006006600084815260200190815260200160002060405180602001604052908160008201805461116490612ea6565b80601f016020809104026020016040519081016040528092919081815260200182805461119090612ea6565b80156111dd5780601f106111b2576101008083540402835291602001916111dd565b820191906000526020600020905b8154815290600101906020018083116111c057829003601f168201915b50505050508152505090508060000151915050919050565b6000600560008473ffffffffffffffffffffffffffffffffffffffff1673ffffffffffffffffffffffffffffffffffffffff16815260200190815260200160002060008373ffffffffffffffffffffffffffffffffffffffff1673ffffffffffffffffffffffffffffffffffffffff16815260200190815260200160002060009054906101000a900460ff16905092915050565b60007f01ffc9a7000000000000000000000000000000000000000000000000000000007bffffffffffffffffffffffffffffffffffffffffffffffffffffffff1916827bffffffffffffffffffffffffffffffffffffffffffffffffffffffff1916149050919050565b60008073ffffffffffffffffffffffffffffffffffffffff166002600084815260200190815260200160002060009054906101000a900473ffffffffffffffffffffffffffffffffffffffff1673ffffffffffffffffffffffffffffffffffffffff1614159050919050565b600033905090565b816004600083815260200190815260200160002060006101000a81548173ffffffffffffffffffffffffffffffffffffffff021916908373ffffffffffffffffffffffffffffffffffffffff160217905550808273ffffffffffffffffffffffffffffffffffffffff166113da83610c56565b73ffffffffffffffffffffffffffffffffffffffff167f8c5be1e5ebec7d5bd14f71427d1e84f3dd0314c0f7b2291e5b200ac8c7c3b92560405160405180910390a45050565b600061142b826112f3565b61146a576040517f08c379a000000000000000000000000000000000000000000000000000000000815260040161146190612a9e565b60405180910390fd5b600061147583610c56565b90508073ffffffffffffffffffffffffffffffffffffffff168473ffffffffffffffffffffffffffffffffffffffff1614806114e457508373ffffffffffffffffffffffffffffffffffffffff166114cc846106ec565b73ffffffffffffffffffffffffffffffffffffffff16145b806114f557506114f481856111f5565b5b91505092915050565b8273ffffffffffffffffffffffffffffffffffffffff1661151e82610c56565b73ffffffffffffffffffffffffffffffffffffffff1614611574576040517f08c379a000000000000000000000000000000000000000000000000000000000815260040161156b90612b5e565b60405180910390fd5b600073ffffffffffffffffffffffffffffffffffffffff168273ffffffffffffffffffffffffffffffffffffffff1614156115e4576040517f08c379a00000000000000000000000000000000000000000000000000000000081526004016115db90612a5e565b60405180910390fd5b6115ef838383611998565b6115fa600082611367565b6001600360008573ffffffffffffffffffffffffffffffffffffffff1673ffffffffffffffffffffffffffffffffffffffff168152602001908152602001600020600082825461164a9190612daf565b925050819055506001600360008473ffffffffffffffffffffffffffffffffffffffff1673ffffffffffffffffffffffffffffffffffffffff16815260200190815260200160002060008282546116a19190612d28565b92505081905550816002600083815260200190815260200160002060006101000a81548173ffffffffffffffffffffffffffffffffffffffff021916908373ffffffffffffffffffffffffffffffffffffffff160217905550808273ffffffffffffffffffffffffffffffffffffffff168473ffffffffffffffffffffffffffffffffffffffff167fddf252ad1be2c89b69c2b068fc378daa952ba7f163c4a11628f55a4df523b3ef60405160405180910390a4505050565b61177482826040518060200160405280600081525061199d565b5050565b6117838484846114fe565b61178f848484846119f8565b6117ce576040517f08c379a00000000000000000000000000000000000000000000000000000000081526004016117c590612a1e565b60405180910390fd5b50505050565b606060405180602001604052806000815250905090565b60606000821415611833576040518060400160405280600181526020017f30000000000000000000000000000000000000000000000000000000000000008152509050611993565b600082905060005b6000821461186557808061184e90612ed8565b915050600a8261185e9190612d7e565b915061183b565b60008167ffffffffffffffff8111156118a7577f4e487b7100000000000000000000000000000000000000000000000000000000600052604160045260246000fd5b6040519080825280601f01601f1916602001820160405280156118d95781602001600182028036833780820191505090505b5090505b6000851461198c576001826118f29190612daf565b9150600a856119019190612f21565b603061190d9190612d28565b60f81b818381518110611949577f4e487b7100000000000000000000000000000000000000000000000000000000600052603260045260246000fd5b60200101907effffffffffffffffffffffffffffffffffffffffffffffffffffffffffffff1916908160001a905350600a856119859190612d7e565b94506118dd565b8093505050505b919050565b505050565b6119a78383611b8f565b6119b460008484846119f8565b6119f3576040517f08c379a00000000000000000000000000000000000000000000000000000000081526004016119ea90612a1e565b60405180910390fd5b505050565b6000611a198473ffffffffffffffffffffffffffffffffffffffff16611d5d565b15611b82578373ffffffffffffffffffffffffffffffffffffffff1663150b7a02611a4261135f565b8786866040518563ffffffff1660e01b8152600401611a649493929190612975565b602060405180830381600087803b158015611a7e57600080fd5b505af1925050508015611aaf57506040513d601f19601f82011682018060405250810190611aac9190612131565b60015b611b32573d8060008114611adf576040519150601f19603f3d011682016040523d82523d6000602084013e611ae4565b606091505b50600081511415611b2a576040517f08c379a0000000000000000000000000000000000000000000000000000000008152600401611b2190612a1e565b60405180910390fd5b805181602001fd5b63150b7a0260e01b7bffffffffffffffffffffffffffffffffffffffffffffffffffffffff1916817bffffffffffffffffffffffffffffffffffffffffffffffffffffffff191614915050611b87565b600190505b949350505050565b600073ffffffffffffffffffffffffffffffffffffffff168273ffffffffffffffffffffffffffffffffffffffff161415611bff576040517f08c379a0000000000000000000000000000000000000000000000000000000008152600401611bf690612b1e565b60405180910390fd5b611c08816112f3565b15611c48576040517f08c379a0000000000000000000000000000000000000000000000000000000008152600401611c3f90612a3e565b60405180910390fd5b611c5460008383611998565b6001600360008473ffffffffffffffffffffffffffffffffffffffff1673ffffffffffffffffffffffffffffffffffffffff1681526020019081526020016000206000828254611ca49190612d28565b92505081905550816002600083815260200190815260200160002060006101000a81548173ffffffffffffffffffffffffffffffffffffffff021916908373ffffffffffffffffffffffffffffffffffffffff160217905550808273ffffffffffffffffffffffffffffffffffffffff16600073ffffffffffffffffffffffffffffffffffffffff167fddf252ad1be2c89b69c2b068fc378daa952ba7f163c4a11628f55a4df523b3ef60405160405180910390a45050565b600080823b905060008111915050919050565b828054611d7c90612ea6565b90600052602060002090601f016020900481019282611d9e5760008555611de5565b82601f10611db757805160ff1916838001178555611de5565b82800160010185558215611de5579182015b82811115611de4578251825591602001919060010190611dc9565b5b509050611df29190611df6565b5090565b5b80821115611e0f576000816000905550600101611df7565b5090565b6000611e26611e2184612c85565b612c54565b905082815260208101848484011115611e3e57600080fd5b611e49848285612e64565b509392505050565b6000611e64611e5f84612cb5565b612c54565b905082815260208101848484011115611e7c57600080fd5b611e87848285612e64565b509392505050565b600081359050611e9e8161301f565b92915050565b600081359050611eb381613036565b92915050565b600081359050611ec88161304d565b92915050565b600081519050611edd8161304d565b92915050565b600082601f830112611ef457600080fd5b8135611f04848260208601611e13565b91505092915050565b600082601f830112611f1e57600080fd5b8135611f2e848260208601611e51565b91505092915050565b600081359050611f4681613064565b92915050565b600081359050611f5b8161307b565b92915050565b600060208284031215611f7357600080fd5b6000611f8184828501611e8f565b91505092915050565b60008060408385031215611f9d57600080fd5b6000611fab85828601611e8f565b9250506020611fbc85828601611e8f565b9150509250929050565b600080600060608486031215611fdb57600080fd5b6000611fe986828701611e8f565b9350506020611ffa86828701611e8f565b925050604061200b86828701611f37565b9150509250925092565b6000806000806080858703121561202b57600080fd5b600061203987828801611e8f565b945050602061204a87828801611e8f565b935050604061205b87828801611f37565b925050606085013567ffffffffffffffff81111561207857600080fd5b61208487828801611ee3565b91505092959194509250565b600080604083850312156120a357600080fd5b60006120b185828601611e8f565b92505060206120c285828601611ea4565b9150509250929050565b600080604083850312156120df57600080fd5b60006120ed85828601611e8f565b92505060206120fe85828601611f37565b9150509250929050565b60006020828403121561211a57600080fd5b600061212884828501611eb9565b91505092915050565b60006020828403121561214357600080fd5b600061215184828501611ece565b91505092915050565b6000806040838503121561216d57600080fd5b600083013567ffffffffffffffff81111561218757600080fd5b61219385828601611f0d565b92505060206121a485828601611f37565b9150509250929050565b6000602082840312156121c057600080fd5b60006121ce84828501611f37565b91505092915050565b600080604083850312156121ea57600080fd5b60006121f885828601611f37565b925050602061220985828601611f37565b9150509250929050565b6000806040838503121561222657600080fd5b600061223485828601611f4c565b925050602061224585828601611e8f565b9150509250929050565b61225881612de3565b82525050565b61226781612df5565b82525050565b600061227882612ce5565b6122828185612cfb565b9350612292818560208601612e73565b61229b8161300e565b840191505092915050565b60006122b182612cf0565b6122bb8185612d0c565b93506122cb818560208601612e73565b6122d48161300e565b840191505092915050565b60006122ea82612cf0565b6122f48185612d1d565b9350612304818560208601612e73565b80840191505092915050565b600061231d602783612d0c565b91507f596f752063616e27742073616c6520746865205374617220796f7520646f6e2760008301527f74206f776e6564000000000000000000000000000000000000000000000000006020830152604082019050919050565b6000612383603283612d0c565b91507f4552433732313a207472616e7366657220746f206e6f6e20455243373231526560008301527f63656976657220696d706c656d656e74657200000000000000000000000000006020830152604082019050919050565b60006123e9601c83612d0c565b91507f4552433732313a20746f6b656e20616c7265616479206d696e746564000000006000830152602082019050919050565b6000612429602483612d0c565b91507f4552433732313a207472616e7366657220746f20746865207a65726f2061646460008301527f72657373000000000000000000000000000000000000000000000000000000006020830152604082019050919050565b600061248f601983612d0c565b91507f4552433732313a20617070726f766520746f2063616c6c6572000000000000006000830152602082019050919050565b60006124cf602c83612d0c565b91507f4552433732313a206f70657261746f7220717565727920666f72206e6f6e657860008301527f697374656e7420746f6b656e00000000000000000000000000000000000000006020830152604082019050919050565b6000612535603883612d0c565b91507f4552433732313a20617070726f76652063616c6c6572206973206e6f74206f7760008301527f6e6572206e6f7220617070726f76656420666f7220616c6c00000000000000006020830152604082019050919050565b600061259b602a83612d0c565b91507f4552433732313a2062616c616e636520717565727920666f7220746865207a6560008301527f726f2061646472657373000000000000000000000000000000000000000000006020830152604082019050919050565b6000612601602983612d0c565b91507f4552433732313a206f776e657220717565727920666f72206e6f6e657869737460008301527f656e7420746f6b656e00000000000000000000000000000000000000000000006020830152604082019050919050565b6000612667602083612d0c565b91507f4552433732313a206d696e7420746f20746865207a65726f20616464726573736000830152602082019050919050565b60006126a7602c83612d0c565b91507f4552433732313a20617070726f76656420717565727920666f72206e6f6e657860008301527f697374656e7420746f6b656e00000000000000000000000000000000000000006020830152604082019050919050565b600061270d602983612d0c565b91507f4552433732313a207472616e73666572206f6620746f6b656e2074686174206960008301527f73206e6f74206f776e00000000000000000000000000000000000000000000006020830152604082019050919050565b6000612773602f83612d0c565b91507f4552433732314d657461646174613a2055524920717565727920666f72206e6f60008301527f6e6578697374656e7420746f6b656e00000000000000000000000000000000006020830152604082019050919050565b60006127d9601d83612d0c565b91507f596f75206e65656420746f206861766520656e6f7567682045746865720000006000830152602082019050919050565b6000612819602183612d0c565b91507f4552433732313a20617070726f76616c20746f2063757272656e74206f776e6560008301527f72000000000000000000000000000000000000000000000000000000000000006020830152604082019050919050565b600061287f601e83612d0c565b91507f54686520537461722073686f756c6420626520757020666f722073616c6500006000830152602082019050919050565b60006128bf603183612d0c565b91507f4552433732313a207472616e736665722063616c6c6572206973206e6f74206f60008301527f776e6572206e6f7220617070726f7665640000000000000000000000000000006020830152604082019050919050565b61292181612e4d565b82525050565b61293081612e57565b82525050565b600061294282856122df565b915061294e82846122df565b91508190509392505050565b600060208201905061296f600083018461224f565b92915050565b600060808201905061298a600083018761224f565b612997602083018661224f565b6129a46040830185612918565b81810360608301526129b6818461226d565b905095945050505050565b60006020820190506129d6600083018461225e565b92915050565b600060208201905081810360008301526129f681846122a6565b905092915050565b60006020820190508181036000830152612a1781612310565b9050919050565b60006020820190508181036000830152612a3781612376565b9050919050565b60006020820190508181036000830152612a57816123dc565b9050919050565b60006020820190508181036000830152612a778161241c565b9050919050565b60006020820190508181036000830152612a9781612482565b9050919050565b60006020820190508181036000830152612ab7816124c2565b9050919050565b60006020820190508181036000830152612ad781612528565b9050919050565b60006020820190508181036000830152612af78161258e565b9050919050565b60006020820190508181036000830152612b17816125f4565b9050919050565b60006020820190508181036000830152612b378161265a565b9050919050565b60006020820190508181036000830152612b578161269a565b9050919050565b60006020820190508181036000830152612b7781612700565b9050919050565b60006020820190508181036000830152612b9781612766565b9050919050565b60006020820190508181036000830152612bb7816127cc565b9050919050565b60006020820190508181036000830152612bd78161280c565b9050919050565b60006020820190508181036000830152612bf781612872565b9050919050565b60006020820190508181036000830152612c17816128b2565b9050919050565b6000602082019050612c336000830184612918565b92915050565b6000602082019050612c4e6000830184612927565b92915050565b6000604051905081810181811067ffffffffffffffff82111715612c7b57612c7a612fdf565b5b8060405250919050565b600067ffffffffffffffff821115612ca057612c9f612fdf565b5b601f19601f8301169050602081019050919050565b600067ffffffffffffffff821115612cd057612ccf612fdf565b5b601f19601f8301169050602081019050919050565b600081519050919050565b600081519050919050565b600082825260208201905092915050565b600082825260208201905092915050565b600081905092915050565b6000612d3382612e4d565b9150612d3e83612e4d565b9250827fffffffffffffffffffffffffffffffffffffffffffffffffffffffffffffffff03821115612d7357612d72612f52565b5b828201905092915050565b6000612d8982612e4d565b9150612d9483612e4d565b925082612da457612da3612f81565b5b828204905092915050565b6000612dba82612e4d565b9150612dc583612e4d565b925082821015612dd857612dd7612f52565b5b828203905092915050565b6000612dee82612e2d565b9050919050565b60008115159050919050565b60007fffffffff0000000000000000000000000000000000000000000000000000000082169050919050565b600073ffffffffffffffffffffffffffffffffffffffff82169050919050565b6000819050919050565b600060ff82169050919050565b82818337600083830152505050565b60005b83811015612e91578082015181840152602081019050612e76565b83811115612ea0576000848401525b50505050565b60006002820490506001821680612ebe57607f821691505b60208210811415612ed257612ed1612fb0565b5b50919050565b6000612ee382612e4d565b91507fffffffffffffffffffffffffffffffffffffffffffffffffffffffffffffffff821415612f1657612f15612f52565b5b600182019050919050565b6000612f2c82612e4d565b9150612f3783612e4d565b925082612f4757612f46612f81565b5b828206905092915050565b7f4e487b7100000000000000000000000000000000000000000000000000000000600052601160045260246000fd5b7f4e487b7100000000000000000000000000000000000000000000000000000000600052601260045260246000fd5b7f4e487b7100000000000000000000000000000000000000000000000000000000600052602260045260246000fd5b7f4e487b7100000000000000000000000000000000000000000000000000000000600052604160045260246000fd5b6000601f19601f8301169050919050565b61302881612de3565b811461303357600080fd5b50565b61303f81612df5565b811461304a57600080fd5b50565b61305681612e01565b811461306157600080fd5b50565b61306d81612e4d565b811461307857600080fd5b50565b61308481612e57565b811461308f57600080fd5b5056fea2646970667358221220659e545ca6bf5cd06936f6d4b92b8cde0324ffcecf5bd5efa2a3c22e7896305064736f6c63430008000033",
  "immutableReferences": {},
  "source": "//SPDX-License-Identifier: UNLICENSED\npragma solidity >=0.6.0 <=0.8.0;\n\n//import \"../node_modules/openzeppelin-solidity/contracts/token/ERC721/ERC721.sol\";\nimport \"@openzeppelin/contracts/token/ERC721/ERC721.sol\";\n\n//https://review.udacity.com/#!/rubrics/2297/view\n\ncontract StarNotary is ERC721 {\n\n    //using Counters for Counters.Counter;\n    //Counters.Counter private _tokenIds;\n\n    struct Star {\n        string name;\n    }\n\n    mapping(uint256 => Star) public tokenIdToStarInfo;\n    mapping(uint256 => uint256) public starsForSale;\n\n    constructor() ERC721(\"StarNotary\", \"STX\") {}\n\n\n    function createStar(string memory name, uint256 tokenId) payable public {\n//        bool doesNotExists = ! _exists(tokenId);\n//        require(doesNotExists);\n        Star memory newStar = Star(name);\n        tokenIdToStarInfo[tokenId] = newStar;\n        _safeMint(msg.sender, tokenId);\n    }\n\n    function buyStar() pure public returns (uint8){\n        return 1;\n    }\n\n    function putStarForSale(uint256 _tokenId, uint256 _price)  public {\n        require(ownerOf(_tokenId) == msg.sender, \"You can't sale the Star you don't owned\");\n        starsForSale[_tokenId] = _price;\n    }\n\n    function buyStar(uint256 _tokenId) public  payable {\n                require(starsForSale[_tokenId] > 0, \"The Star should be up for sale\");\n        uint256 starCost = starsForSale[_tokenId];\n        address ownerAddress = ownerOf(_tokenId);\n        require(msg.value > starCost, \"You need to have enough Ether\");\n        safeTransferFrom(ownerAddress, msg.sender, _tokenId); // We can't use _addTokenTo or_removeTokenFrom functions, now we have to use _transferFrom\n\n        address payable payableOwner = payable (address(ownerAddress));\n        payableOwner.transfer(starCost);\n        if(msg.value > starCost) {\n            address payable payableSender = payable(address(msg.sender));\n            payableSender.transfer(msg.value - starCost);\n        }\n    }\n\n\n    //Add a function lookUptokenIdToStarInfo, that looks up the stars using the Token ID, and then returns the name of the star.\n    function lookUptokenIdToStarInfo(uint256 _tokenID) public view returns (string memory) {\n        Star memory star  = tokenIdToStarInfo[_tokenID];\n        return star.name;\n    }\n\n    //Add a function called exchangeStars, so 2 users can exchange their star tokens...\n    //Do not worry about the price, just write code to exchange stars between users.\n    function exchangeStars(uint256 callerToken, uint256 friendToken) public {\n        //trouver la fonction ERC 721 pour pouvoir changer l'ownershop\n        //transfer\n//        Star memory starUser1 =  tokenIdToStarInfo[callerToken];\n//        Star memory starUser2 =  tokenIdToStarInfo[_tokenID2];\n\n        address caller = ownerOf(callerToken);\n        address friend = ownerOf(friendToken);\n\n        safeTransferFrom(caller, friend,callerToken);\n        safeTransferFrom(friend, caller,friendToken);\n\n    }\n\n\n\n    //Write a function to Transfer a Star. The function should transfer a star from the //address of the caller.\n    //The function should accept 2 arguments, the address to transfer the star to, and the token ID of the star.\n    function transferStar(uint8 starToken,address to) public {\n        address starOwner = ownerOf(starToken);\n        require (starOwner == msg.sender);\n        safeTransferFrom(starOwner,to,starToken);\n    }\n\n\n\n}\n",
  "sourcePath": "/Users/jeremymum/Desktop/jeremymum/private/e-learning/blockchain/starnotary-truffle-vue/contracts/StarNotary.sol",
  "compiler": {
    "name": "solc",
    "version": "0.8.0+commit.c7dfd78e.Emscripten.clang"
  },
  "schemaVersion": "3.3.4",
  "updatedAt": "2021-05-27T15:41:17.549Z",
  "networkType": "ethereum",
  "devdoc": {
    "kind": "dev",
    "methods": {
      "approve(address,uint256)": {
        "details": "See {IERC721-approve}."
      },
      "balanceOf(address)": {
        "details": "See {IERC721-balanceOf}."
      },
      "getApproved(uint256)": {
        "details": "See {IERC721-getApproved}."
      },
      "isApprovedForAll(address,address)": {
        "details": "See {IERC721-isApprovedForAll}."
      },
      "name()": {
        "details": "See {IERC721Metadata-name}."
      },
      "ownerOf(uint256)": {
        "details": "See {IERC721-ownerOf}."
      },
      "safeTransferFrom(address,address,uint256)": {
        "details": "See {IERC721-safeTransferFrom}."
      },
      "safeTransferFrom(address,address,uint256,bytes)": {
        "details": "See {IERC721-safeTransferFrom}."
      },
      "setApprovalForAll(address,bool)": {
        "details": "See {IERC721-setApprovalForAll}."
      },
      "supportsInterface(bytes4)": {
        "details": "See {IERC165-supportsInterface}."
      },
      "symbol()": {
        "details": "See {IERC721Metadata-symbol}."
      },
      "tokenURI(uint256)": {
        "details": "See {IERC721Metadata-tokenURI}."
      },
      "transferFrom(address,address,uint256)": {
        "details": "See {IERC721-transferFrom}."
      }
    },
    "version": 1
  },
  "userdoc": {
    "kind": "user",
    "methods": {},
    "version": 1
  }
}